:100000000C942A000C9476030C949F030C944700E4
:100010000C9447000C9447000C9447000C94470044
:100020000C9447000C9447000C9447000C94BA03BE
:100030000C9447000C9452040C9447000C94470015
:100040000C9447000C9447000C9447000C94470014
:100050000C94470011241FBECFE5D8E0DEBFCDBF12
:1000600010E0A0E6B0E0E2E0FFE002C005900D92F3
:10007000A83FB107D9F711E0A8EFB0E001C01D9289
:10008000A837B107E1F70E9449000C947F070C9450
:1000900000000E9435030E94890080E490E00E94E5
:1000A0001C020E9447020E943C010E94BB01FDCF3E
:1000B000DB9A00009BB3807F9F70892B8BBB88EC01
:1000C0008A95F1F7DB9888EC8A95F1F708951F93EC
:1000D000182FDB9A000000000E9458000000DB9AF5
:1000E000812F8295807F0E9458001F9108959AB3B6
:1000F0009C6F9ABBDA9A000000000E946700089586
:100100009AB39C6F9ABBDA98000000000E946700C7
:1001100008958AB38C6F8ABB8BB3837F8BBB80E3DC
:100120000E9458008FE59AEE0197F1F700C0000099
:1001300080E30E9458008FE59AEE0197F1F700C026
:10014000000080E30E9458008FE59AEE0197F1F7D6
:1001500000C0000080E20E9458008FE59AEE0197EF
:10016000F1F700C0000088E20E94800087E893E178
:100170000197F1F700C0000088E00E94800087E846
:1001800093E10197F1F700C0000081E00E94800038
:1001900087E893E10197F1F700C0000086E00E9434
:1001A000800087E893E10197F1F700C000008FE03D
:1001B0000E94800087E893E10197F1F700C00000FA
:1001C00082E00E94800087E893E10197F1F700C088
:1001D0000000089581E00E94800083E00E9480007A
:1001E0000895EF92FF92CF93DF93E82EE7017E010F
:1001F000F92EE70102C00E94770089918823D9F780
:10020000DF91CF91FF90EF9008950895613049F00C
:10021000613028F0623039F0633061F408C08058F2
:1002200003C0805401C08C560E94800008958C52F7
:100230000E94800008950F931F93CF93DF93182F90
:10024000062F0E940601C12FD0E00AC080E20E9462
:10025000770083EC99E00197F1F700C00000219648
:10026000C431D1059CF3812F602F0E940601DF91DC
:10027000CF911F910F9108958AB383608ABB84B395
:10028000807C84BB0E948900089593B3EFE4F3EC73
:100290003197F1F700C0000083B3807C907C891710
:1002A000D1F5803479F08038C1F0E0912F018823B6
:1002B000F9F4F0E0EE0FFF1FEE0FFF1FE957FF4FBD
:1002C00083811EC0E0912F01F0E0EE0FFF1FEE0FC3
:1002D000FF1FE957FF4F828113C0E0912F01F0E02B
:1002E000EE0FFF1FEE0FFF1FE957FF4F818108C080
:1002F000F0E0EE0FFF1FEE0FFF1FE957FF4F808169
:1003000080932E0180912E01833419F481E00E94A4
:100310008000B299FECF089580E090E052E041E085
:1003200033E022C08130910559F08230910579F097
:100330000097A1F42BB32C7F2BBB30932F0113C05C
:100340002BB32C7F2BBBD89A50932F010CC02BB30F
:100350002C7F2BBBD99A40932F0105C02BB3236070
:100360002BBB10922F010196B29BDCCF0E9445015E
:1003700080912E0108950F931F93CF93DF9304E292
:1003800011E0C0E0D0E00E948C01D8018D938D0176
:100390008C2F61E00E94060181E690E00E94F1004E
:1003A0008C2F61E00E9406018AE20E9477008FEBA9
:1003B00097E2A9E081509040A040E1F700C0000022
:1003C0002196C430D105F9F6809124018233A9F435
:1003D00080912501853389F480912601803369F469
:1003E00080912701823349F4A7EAB1E61197F1F72A
:1003F00000C000000E94460319C080E063E00E9434
:1004000006018CE690E00E94F1008FE794E8AEE1EF
:1004100081509040A040E1F700C000000E94EA0037
:1004200086E790E00E94F1000E94BB0181E0DF912D
:10043000CF911F910F9108952AB128692AB920B54B
:10044000266820BD22E02BB9292F332727FD3A95B6
:1004500020BD89B908955D9BFECF8CB908955F9B3F
:10046000FECF8CB10895EF92FF92CF93DF93E82EE9
:10047000E7017E01F92EE70102C00E942B0289915B
:100480008823D9F7DF91CF91FF90EF90089587B33C
:10049000806B87BB8DB181658DB988B3806D88BB5A
:1004A0000895779BFECFC49A8FB10895C4988FB9F1
:1004B000779BFECFC49A0895EF92FF920F931F93FC
:1004C000DF93CF93CDB7DEB7C456D0400FB6F894C4
:1004D000DEBF0FBECDBF2DB73EB72A5030400FB69E
:1004E000F8943EBF0FBE2DBFEDB7FEB731967E012B
:1004F0000894E11CF11CADB7BEB71296FC92EE92C7
:10050000119727E930E0338322839091CB009483C5
:1005100015829091CC0096831782808711860E9465
:100520009E040F900F900F900F90EDB7FEB731968D
:100530008E010D5C1F4FADB7BEB712961C930E9384
:10054000119788EA90E093838283F582E4820E9487
:100550009E042DB73EB72A5F3F4F0FB6F8943EBFBB
:100560000FBE2DBFC8010E9433028FEA90E00E94A7
:10057000F100CC59DF4F0FB6F894DEBF0FBECDBFF0
:10058000CF91DF911F910F91FF90EF900895EF921F
:10059000FF920F931F93DF93CF93CDB7DEB72897CA
:1005A0000FB6F894DEBF0FBECDBF1B820E942F0294
:1005B00089830E942F028A838E010F5F1F4FC8011B
:1005C0000E947804809332010E942F0289830E9446
:1005D0002F028A83C8010E947804809330010E9410
:1005E0002F0289830E942F028A83C8010E94780407
:1005F000809331018E010C5F1F4F84E0E82EF12CB7
:10060000E00EF11E0E942F02F80181938F01EE157A
:10061000FF05C1F71886CE0104960E9478048093E6
:100620006601EE2407C00E942F02F801ED5CFE4F28
:100630008083E394809166010E2D10E0E81698F314
:10064000F801ED5CFE4F10828BEB90E00E94F10010
:1006500028960FB6F894DEBF0FBECDBFCF91DF91C5
:100660001F910F91FF90EF900895B89AC09A8BB7A1
:10067000806C8BBF85B7876085BF87B387BB88B326
:1006800088BB83B7826083BF789408958091FD0012
:10069000813059F51092FD00E091F500F091F600DF
:1006A000E759FE4F80810E942B028DEC90E00E9462
:1006B000F1008FEF98E0ADE381509040A040E1F76A
:1006C00000C000000E94EA008AED90E00E94F10064
:1006D0008FE39DE0A3E081509040A040E1F700C08F
:1006E000000089E691E00E94F10008951F920F92A8
:1006F0000FB60F9211242F933F934F935F936F93F5
:100700007F938F939F93AF93BF93EF93FF9384EE69
:1007100090E00E94F10085E50E945602FF91EF9162
:10072000BF91AF919F918F917F916F915F914F9109
:100730003F912F910F900FBE0F901F9018951F9211
:100740000F920FB60F9211248F9389B7816089BFE2
:100750008091FE00813029F489B78E7F89BF109285
:10076000FE0081E08093FE008F910F900FBE0F90EE
:100770001F9018951F920F920FB60F9211242F936E
:100780003F934F935F936F937F938F939F93AF9319
:10079000BF93EF93FF9385EF0E9456022FB12093F2
:1007A000FC008091FF00909100018E3091050CF0CB
:1007B0004AC0263809F447C000D000D000D0EDB7B9
:1007C000FEB7319687E691E0ADB7BEB712969C931F
:1007D0008E93119780EF90E0938382832483158218
:1007E0000E949E04E091F500F091F600E759FE4F5B
:1007F0008091680180838091F5009091F6000197C7
:100800009093F6008093F500E091F500F091F600EA
:10081000E759FE4F80916701808310920201109288
:1008200001018091F5009091F60001979093F600F8
:100830008093F500C0988DB79EB706960FB6F894D2
:100840009EBF0FBE8DBF8091FF0090910001873049
:10085000910571F481E08093FD00109200011092E7
:10086000FF008DE090E09093F6008093F50009C0C2
:100870008091FF0090910001019690930001809378
:10088000FF00FF91EF91BF91AF919F918F917F9169
:100890006F915F914F913F912F910F900FBE0F90ED
:1008A0001F9018951F920F920FB60F9211242F933D
:1008B0003F934F935F936F937F938F939F93AF93E8
:1008C000BF93EF93FF930E942F020E947700FF9146
:1008D000EF91BF91AF919F918F917F916F915F91B8
:1008E0004F913F912F910F900FBE0F901F90189531
:1008F000FC0188279927E89421912032E9F32930D7
:1009000010F02E30C8F32B3241F02D3239F46894B8
:1009100004C00E949604820F911D219120532A3019
:10092000C0F31EF4909581959F4F08957AE0979FAC
:10093000902D879F802D910D11240895AEE0B0E099
:10094000E4EAF4E00C9456070D891E8986E08C8356
:100950001A8309838FEF9FE79E838D839E01275E15
:100960003F4FCE0101966F89788DA9010E94C10485
:10097000EF81F885E00FF11F10822E96E4E00C94D1
:100980007207ACE0B0E0E7ECF4E00C9448076C01CF
:100990001B018A01FC0117821682838181FFD1C16C
:1009A0002E010894411C511CF6019381F10193FD25
:1009B000859193FF81911F01882309F4BEC185327F
:1009C00039F493FD859193FF81911F01853229F4BC
:1009D00090E0B6010E94BE06E7CFEE24FF2420E09F
:1009E0002032B0F48B3269F08C3228F4803251F02E
:1009F000833271F40BC08D3239F0803349F42160B9
:100A00002CC02260246029C0286027C0206125C036
:100A100027FD2CC0382F30533A3098F426FF08C0F9
:100A20008E2D880FE82EEE0CEE0CE80EE30E15C0AE
:100A30008F2D880FF82EFF0CFF0CF80EF30E20629E
:100A40000CC08E3221F426FD78C1206406C08C369D
:100A500011F4206802C0883649F4F10193FD8591B4
:100A600093FF81911F01882309F0BACF982F9554E5
:100A7000933018F09052933028F40C5F1F4FFFE32F
:100A8000F9830DC0833631F0833771F0833509F077
:100A900060C022C0F801808189830E5F1F4F420130
:100AA00071E0A72EB12C16C062E0662E712C600E8C
:100AB000711EF8018080918026FF03C06E2D70E0CA
:100AC00002C06FEF7FEFC4012C870E94B3065C0168
:100AD00083012C852F7717C052E0652E712C600E94
:100AE000711EF8018080918026FF03C06E2D70E09A
:100AF00002C06FEF7FEFC4012C870E94A8065C0143
:100B00002C852068830123FD20C008C080E290E08E
:100B1000B6012C870E94BE06FA942C858F2D90E09A
:100B2000A816B90698F311C0F40127FD859127FF97
:100B300081914F0190E0B6012C870E94BE062C8562
:100B4000F110FA940894A108B108A114B10461F756
:100B5000F1C0843611F0893649F527FF08C0F80145
:100B600060817181828193810C5F1F4F09C0F80100
:100B700060817181882777FD8095982F0E5F1F4FC8
:100B80004FE6B42EB22297FF09C0909580957095DC
:100B900061957F4F8F4F9F4FF0E8BF2AA2012AE057
:100BA00030E00E94EA06782E741845C0853731F48B
:100BB0003FEEB32EB2222AE030E025C099EFB92EE5
:100BC000B2228F36C1F0803720F4883509F0B5C0E5
:100BD0000DC0803721F0883709F0AFC002C020E196
:100BE000B22AB4FE0BC084E0B82A08C0B4FE09C023
:100BF000E6E0BE2A06C028E030E005C020E130E093
:100C000002C020E132E0B7FE08C0F80160817181C6
:100C1000828193810C5F1F4F07C0F8016081718151
:100C200080E090E00E5F1F4FA2010E94EA06782E3E
:100C30007418FFE7BF22B6FE0BC02EEFB2227E145F
:100C400038F4B4FE07C0B2FC05C08FEEB82202C073
:100C5000A72C01C0AE2C8B2D90E0B4FE0DC0FE0180
:100C6000E70DF11D2081203319F4E9EEBE2209C001
:100C7000A394B2FE06C004C086789070009709F075
:100C8000A3948B2C9924B3FC14C0B0FE0FC0AF14F6
:100C900028F4E72CEF0CEA18AF2C08C0E72C06C0AC
:100CA00080E290E0B6010E94BE06A394AF14C0F3A8
:100CB00004C0AF1410F4FA1801C0FF2484FE0FC062
:100CC00080E390E0B6010E94BE0682FE1FC081FE56
:100CD00003C088E590E010C088E790E00DC0C40133
:100CE00086789070009791F081FC02C080E201C08C
:100CF0008BE2B7FC8DE290E0B6010E94BE0606C012
:100D000080E390E0B6010E94BE06EA947E14C0F330
:100D10007A94F201E70DF11D808190E0B6010E9406
:100D2000BE067720A9F706C080E290E0B6010E94D7
:100D3000BE06FA94FF20C1F737CEF601268137812F
:100D400002C02FEF3FEFC9012C96E2E10C9464073B
:100D5000FC010590615070400110D8F78095909586
:100D60008E0F9F1F0895FC0161507040019001108B
:100D7000D8F7809590958E0F9F1F08950F931F931E
:100D8000CF93DF938C01EB018B8181FF1BC082FF2E
:100D90000DC02E813F818C819D812817390764F415
:100DA000E881F9810193F983E88306C0E885F98534
:100DB000802F0995009731F48E819F8101969F8342
:100DC0008E8302C00FEF1FEFC801DF91CF911F91FB
:100DD0000F910895FA01AA27283051F1203181F1AD
:100DE000E8946F936E7F6E5F7F4F8F4F9F4FAF4F33
:100DF000B1E03ED0B4E03CD0670F781F891F9A1F46
:100E0000A11D680F791F8A1F911DA11D6A0F711DF9
:100E1000811D911DA11D20D009F468943F912AE005
:100E2000269F11243019305D3193DEF6CF010895ED
:100E3000462F4770405D4193B3E00FD0C9F7F6CF1E
:100E4000462F4F70405D4A3318F0495D31FD4052E6
:100E5000419302D0A9F7EACFB4E0A695979587957C
:100E600077956795BA95C9F700976105710508955B
:100E70009B01AC010A2E0694579547953795279507
:100E8000BA95C9F7620F731F841F951FA01D08959F
:100E90002F923F924F925F926F927F928F929F928A
:100EA000AF92BF92CF92DF92EF92FF920F931F9378
:100EB000CF93DF93CDB7DEB7CA1BDB0B0FB6F89429
:100EC000DEBF0FBECDBF09942A88398848885F8469
:100ED0006E847D848C849B84AA84B984C884DF80DA
:100EE000EE80FD800C811B81AA81B981CE0FD11DBE
:100EF0000FB6F894DEBF0FBECDBFED010895F89494
:020F0000FFCF21
:100F02001020202020202020202020007472792010
:100F1200616761696E002020202020456E74657231
:100F22002050494E203A0031323346343536453767
:100F32003839444130424325303264253032642509
:100F42003032643030303000257325303264007026
:100F520061636B65742073656E74007061636B65A9
:100F620074207265636965766564000C2257656C4E
:100F7200636F6D65212121212100596F757220490E
:100F820044203A00456E7465722050494E203A0062
:080F920025303258000D00006B
:00000001FF
